:020000040000FA
:06000000A3EF13F0120053
:06000800AEEF10F0120043
:06102A0001008027000018
:08103000850000000C00000027
:08103800E0EC0CF06A6A686A42
:101040009F0E6B6EFB0E696E6D8C6D9C6E6ABBECB9
:101050000CF0DF6AEBEC0CF010E2DF50040DF3CF84
:10106000E9FFF4CFEAFF000EE926040EEA22EE6A59
:10107000EE6AEE6AEE6ADF2AEDD7160E706E68A68B
:1010800004D0030E85EC0CF0FAD70001736B786B7B
:10109000796B7A6B6D98080E6B6F040E6C6F616BD9
:1010A000606BE3EF0CF0E0EC0CF0000160510BE141
:1010B0006D6A696A6DB602D06D86FCD70001010EBB
:1010C000606F160E6F6E600508E16DBA06D0686A33
:1010D000696A69806988020E606F6850040B04E0D9
:1010E0006950040B01E063D86DB248D06850010B21
:1010F00011E06950010B0EE09FDF0001040E606FEC
:101100000401200E026F040E036F080E016F006BC6
:101110008C0E00136850100B04E06950100B01E0B6
:1011200040D86850400B07E06950400B04E028ECC1
:101130000EF0060EEADB6850200B04E06950200B2D
:1011400001E01ED86850020B06E06950020B03E074
:1011500029EC0EF06A6A040E0001605D0FE369A6D7
:101160000DD0DF6A040EDF5C09E268A607D06CCF01
:1011700080F0030ECADB25D8DF2AF4D7E3EF0CF0AA
:1011800070A00CD0E9DBEF50800807E1C8DBEF501E
:10119000840803E1E1DB8C0EEF6E7090050E85EFA5
:1011A0000CF06984040EB1DB6D8226EF0EF06D92B7
:1011B00027EC0EF0699468A403D0020EA6DBFBD7DF
:1011C0001200FD0E0001801519E17E0E8015E84029
:1011D0007F0B040DF3CF63F0F4CF64F0000E6327B0
:1011E000040E642363C065F064C066F0657554EC5A
:1011F0000DF002E104EF09F015EF09F0FD0E801586
:10120000040801E11AD812008ADBEF50800B02E0DB
:1012100086DBEF6A00016F6B706B746B756B736BC1
:1012200090D82AEC0EF0CDEF0AF0020E0001705DAE
:1012300002E157EF0BF049EF09F0C2DB70DBEF5032
:10124000400B01E0010EDF6E00016B75080E605D62
:1012500009E122C46EFF6E50000802E2100E01D0B8
:10126000040E606F700513E146EC0DF0CED9020E4E
:1012700000016F5D03E153DB840E07D0DF5003E113
:101280004EDBC80E02D04BDB880EEF6E01D001D8CA
:101290009AD341EC0DF0030EE126020E0001705DC1
:1012A00026E16D50100B23E057DBEE52EF50006E3D
:1012B000016A080E00181BE1015019E154EC0DF011
:1012C00016E1C0DBEF50800B12E1BCDBCEDBDF6A46
:1012D00082DB22E2DF5087DBDF50EA6A200FE96E13
:1012E000040EEA22E552E750EF6EDF2AF1D7706B69
:1012F000C2DBEF6A040E6B19006E6CC001F0010EC8
:1013000000C0DBFF020E6CC0DBFF010EDBCFE9FF8C
:10131000020EDBCFEAFFEF6A000178AF0CD07B5101
:101320007C1107E005D07CC0FAFF00017B51F96E0B
:10133000FADF0001789F030EE15C02E2E16AE55208
:10134000FCD204012051600BE842E842E842E84246
:10135000E842000901E0120021510C0A43E00B0AA7
:101360003FE00C0A31E0010A22E00B0A1EE0020A0B
:101370001CE0030A18E0080A10E0010A0CE00F0A5A
:1013800008E0030A01E012000001738F080E606F8D
:10139000120059EF0AF0B0EF0BF00001610E716F0F
:1013A000000E726F0CD094EF0AF0F3EF09F02451A5
:1013B0000001716F726B620E7127000E72237381D0
:1013C000010E746F738F12000001738F040124519A
:1013D000EA6A620FE96E000EEA2222C4EFFF1200F1
:1013E0002CEF0EF012004DDB050EE1260401220564
:1013F00010E120511F0B00090CE10001738F030E57
:101400000401215D04E10001010E7F6F02D00001A3
:101410007F6B0401225147E120511F0B020843E179
:1014200024510F0B00093FE00001738F040EDB6AAB
:10143000020EF36E040EDBCFF4FFF350F45C33E2E4
:10144000FCDA040EDBCFE6FF04012451800B01E03F
:10145000010ED1DAE552E724A5DA030E215D03E19E
:1014600063DA840E1CD024510F0B016A700F006EDA
:101470000F0E0122020E00C0DBFF030E01C0DBFFD6
:10148000020EDBCFE9FF030EDBCFEAFFEE90ED5259
:1014900024AF03D049DA400E02D046DAC80EEF6E10
:1014A000040EDB2AC5D7050EE15C02E2E16AE552D3
:1014B00044D2800E0401205D36E10001C00E736F3E
:1014C00004012351030A1EE0010A09E0030A29E18D
:1014D0000001200E716F240E726F120E1FD0A2DA5F
:1014E000DE0EF626240E8FDA020E0001F76A712551
:1014F000F66E7251F7220900F5CF74F00A00F5CFAD
:1015000075F012008FDAE00EF626240E7CDA71C038
:10151000F6FF72C0F7FF0800F5500001746F756B9D
:1015200012000001736B120004DA0401286B296BAE
:1015300020511F0B020A11E0030A0CE0010A1DE111
:101540000001738F0401288100017F0516E1040169
:10155000288313D00001738F10D00001738F6DDAD0
:1015600004012451800B01E0010E45DA1BDADCD9BD
:10157000EF50040B02E0010E286F000173AF07D09B
:10158000280E716F040E726F7381020E746F020E5B
:10159000E15C02E2E16AE552D0D16D98000173BFCF
:1015A00007D078AF02D09BDA28D065DA840E26D037
:1015B00078BF2AD0040120AF23D000017451040168
:1015C000265D000175510401275904E226C474F018
:1015D00027C475F01AD80001010E706F8FD9B6D9E3
:1015E000800EEF6EB9D9EE52080EEF6EB5D93DDA26
:1015F000B3D9800EEF6E4ADA92D9C80EEF6E1200A0
:1016000000016DDAC80EEF6E120093D90001080ECA
:10161000745D000E75590DE274C0DEFF75C0DDFF0C
:101620006F5102E1010E03D06F0506E1020E6F6FEC
:1016300003D0080EDE6EDD6A72D9EF9270D9EF909A
:101640006ED9010EDB50EF126AD9EE52DFCFEFFFF9
:10165000000EDB50745F010EDB50755B280E7D6F52
:10166000040E7E6F73B10FD0E4D91BE071C0F6FF9A
:1016700072C0F7FF712B000E72230800F55084D959
:10168000F3E2DB06F1D7D5D90CE071C0E9FF72C0F7
:10169000EAFF712B000E7223EF5076D9F4E2DB06DD
:1016A000F2D7020EE15C02E2E16AE55246D141D98D
:1016B00053D9EE52EFCFDFFFDFCF00F00050000133
:1016C000795D000E7A5903E279C0DFFF09D0DF505F
:1016D000006E016AE850795D796F01507A597A6F2E
:1016E000010EDB6ADF50F36E010EDBCFF4FFF35027
:1016F000F45C10E2010EDB5076D976C0E9FF77C0CA
:10170000EAFF762B000E7723E552E750EF6E010ECD
:10171000DB2AE8D7000ED8807955000E7A550CE206
:10172000D2D91AD9EF50400B03E18CD9C80E02D0A0
:1017300089D9880EEF6E0ED085D997D97B517C114F
:1017400007E005D07CC0FAFF00017B51F96EFADF9B
:101750000001789F020EE15C02E2E16AE552EDD001
:101760000001738F08D9010EE66EE66AE66A620E22
:10177000E66E000EA0D922C461F00401225104E1FA
:101780000001100E606F12000001200E606F2DEF3F
:101790000EF0CFD852D9E5D8040DF350006E016A8F
:1017A000020E0F0B05E0D89001320032E806FBE193
:1017B000D89000360136D8900036013687D90050CF
:1017C000EE260150ED22B0D8EF9EFD0EDB5002E177
:1017D00061D901D064D9EA22DECFEEFFDDCFEDFF83
:1017E000A3D8EF9CA1D8040EE926000EEA22EF8CC4
:1017F000020EE15C02E2E16AE5529FD09AD8FE0E49
:10180000DB50016A700F006E0F0EDFD8FD0EDB504B
:10181000E66E8AD8E552E750EE6EED6AFD0EDBA467
:1018200002D0E66AF8D8FD0EDBA203D0010EE66E08
:10183000F2D8020EE15C02E2E16AE5527ED079D88C
:10184000FE0EDB5004E117D9840EEF6E05D089D867
:10185000FED887D8010FFBD8020EE15C02E2E16AF4
:10186000E5526BD066D8FD0EDB5002E018D901D0EE
:1018700011D9EA22EECFDEFFEDCFDDFF55D83AD900
:10188000FB0EDBCFEEFFFC0EDBCFEDFF4DD8EE52B3
:10189000FA0EDBCFEFFF400E47D8E850EF16880E68
:1018A00043D8E850EF12FD0EDB5002E0F8D801D02B
:1018B000F1D8EA22EF74DECF00F0DDCF01F000C0F6
:1018C000F3FF01C0F4FF020EE15C02E2E16AE552BF
:1018D00034D0D7D8010EF36EFC0EDB5004E0D89064
:1018E000F336E806FCE1F31C006EFD0EDBCFE9FFEA
:1018F000FE0EDBCFEAFF0050EF16EDD0A3D8EE527C
:10190000080EEF6E9FD87AEF0DF0E66E680EE66E69
:101910000F0EE66EDEDFE552E552E55212006BC0B7
:10192000E9FF6CC0EAFF1200DECFE9FFDDCFEAFF7E
:101930001200A7D8020EE1261200E16ECCD0FE0EF6
:10194000EA6ADB34FE0BEA36E96E1200200EEE6E18
:10195000040EED6E22EF0DF063C0E9FF64C0EAFFF4
:101960001200FD0EDB50E824026EFE0EDB50040D6B
:10197000F35002241200000EE66EE66AE66A710E6B
:10198000E66E0F0E5BEF0DF0E66E7DC0E9FF7EC0E8
:10199000EAFF7D2B000E7E23E552E750EF6EDF0657
:1019A000010E1200040DF4CF01F090D8F350EE2692
:1019B0000150ED221200280EEE6E040EED6E1200A4
:1019C00060D8E6521200E55286D0012200C0DEFF48
:1019D00001C0DDFF1200DF50006E016A080E005CDE
:1019E000000E01581200EA6A280FE96E040EEA227E
:1019F000EF50E66E1200E824026E24510F0B040D26
:101A0000F35002241200F7220900F5CF71F00A000A
:101A1000F5CF72F01200FE0EDBCFE6FFBADEE55224
:101A2000E55212002251F66EF76AD890F636F73674
:101A300012004CD8EE50ED101200000EDE6E040EB7
:101A4000DD6E120065C0E9FF66C0EAFF1200040DFA
:101A5000F3CF00F0F4CF01F0000E0026040EB5DF46
:101A6000840E62DFE850EF12120044D8200EEE6EB2
:101A7000040EED6E120042DF69DF8C0EEF6E8FEF09
:101A80000CF0D9CFE6FFE1CFD9FF120048DF32D802
:101A9000DBEF0CF054DF670EE926000E12004FDF7B
:101AA0006B0EE926000E120057DFEF503C0BE842A8
:101AB000E8420D081200E66E52EC13F0006E050EBF
:101AC000E15E005012001ADFDBEF0CF0D9CFE9FF26
:101AD000DACFEAFF1200E552E7CFD9FF1200020E7B
:101AE000706F1DDFEE52EF6A1ADFC80EEF6EEBDF8C
:0E1AF00022EF0DF0020EE926000EEA2212008F
:021AFE0004D80A
:101B000053EC08F02DD8FCD70F0EC1121CEC08F0D6
:101B100069D8D66AD76ACE6ACF6AB26AB36A959E26
:101B20009390839E8190D08EF28EF28CF28AF18413
:101B30009288D59CD58AD588D5869D809F809480B3
:101B4000CD9ECD9CCD9ACD98CD96CD84CD82959AC3
:101B50009598949E949C838A8398829E829C12007E
:101B6000200E0001605D3DE36D50020B01E01200AC
:101B700000018651871102E1000E08D086C0E9FFFE
:101B800087C0EAFFEF50800B01E0010E000929E158
:101B900004013651100A22E0200A1BE0100A15E069
:101BA000020A0CE0030A04E0700A19E1B1D817D068
:101BB00038C4E6FF37C4E6FFC1D805D038C4E6FF15
:101BC00037C4E6FFFBD8E55207D037C4E6FFACD8F0
:101BD00003D037C4E6FFADD8E55201D0D6DA400EC7
:101BE00032DB1200F00E8C1695169388938A815082
:101BF000100B01E0010E00019B6F8150200B01E0F2
:101C0000010E9C6F0001866B876B886B896B1200DD
:101C10008150100B01E0010E00019B5D07E0815037
:101C2000100B01E0010E9B6F81A8010C000C81508C
:101C3000200B01E0010E00019C5D07E08150200BAC
:101C400001E0010E9C6F81AA010C000C1200120031
:101C500012001200A2EF11F012001E0EE66E010E2D
:101C6000E66EFEEC0BF0E552E552410E23EF11F06B
:101C70006D840001080E9F6F070EA06F9F07000E76
:101C8000A05B9F51A011FAE16D941200D6CF77F4BA
:101C9000D7CF78F48AC079F4CECF7AF4CFCF7BF463
:101CA0008BC07CF4C9EF10F006DBDE6ADD6A19DB5D
:101CB00004E6020E005C000E015809E2D66AD76AFB
:101CC00000018A6BDF2A010EF2E3DB2AF0D7020E55
:101CD000E15C02E2E16AE552E16EC9D2ECDADE6A69
:101CE000DD6AFFDA04E6020E005C000E015809E22C
:101CF000CE6ACF6A00018B6BDF2A010EF2E3DB2A8A
:101D0000F0D7020EE15C02E2E16AE552E16EAFD289
:101D1000CBDFE4DFCD80D58E37C4E6FFFFD9E552B7
:101D2000CD90D59E46EF0EF0E3DA00018C6F8D6BFF
:101D30009ED2DEDA00018E6F8F6B99D24EDA09E106
:101D4000EE5007E1EE5005E1EE5003E1060EDB6ACE
:101D500003D0060E8CC0DBFFF0DAB1DA01AE02D0A0
:101D60000268036895DAE8AE02D02A3401D0B0DA0E
:101D70001DE205DA00091AE18CAA03D08C9A8C883E
:101D80000ED08CA803D08C988B8E09D08BAE03D04C
:101D90008B9E8B8C04D08BAC03D08B9C8C8AACDA62
:101DA000040EDB2A050ED9E3DB2AD7D7F2D9070EBA
:101DB000E15C02E2E16AE552E16E59D20EDA09E134
:101DC000EE5007E1EE5005E1EE5003E1060EDB6A4E
:101DD00003D0060E8CC0DBFFB0DA71DA01AE02D0A0
:101DE0000268036855DAE8AE02D02A3401D070DA0E
:101DF0001DE2C5D900091AE18CAA03D08C9A8B8CFC
:101E00000ED08BAC03D08B9C8B8E09D08BAE03D0C5
:101E10008B9E8C8804D08CA803D08C988C8A6CDA2A
:101E2000040EDB2A050ED9E3DB2AD7D7B2D9070E79
:101E3000E15C02E2E16AE552E16E19D263DA0A0E70
:101E4000E126DF6A010EDB6A020EDB6A030EDB6A43
:101E5000040EDB6A64DA02C003F001C002F000C0C5
:101E600001F0006A63DA0450002605500122065092
:101E7000022207500322050E00C0DBFF060E01C040
:101E8000DBFF070E02C0DBFF080E03C0DBFF090EFD
:101E9000DB6A050EDBCF26F0060EDBCF27F0070E40
:101EA000DBCF28F0080EDBCF29F0C80EE4D9030EF3
:101EB00026C0DBFFDB50C80DF3CF00F0F4CF01F0FC
:101EC000026A036A01AE02D002680368EED90050CC
:101ED000EE5C266E0150EE58276E0250EE58286ECA
:101EE0000350EE58296E640EC6D92650DF6E030EDD
:101EF000DB50C80DF3CF04F0F4CF05F0066A076A93
:101F000005AE02D006680768D0D90450EE5C006EBA
:101F10000550EE58016E0650EE58026E0750EE580E
:101F2000036E640EDF02F3CF08F0096A0A6A0B6AD7
:101F3000F350005C266E09500158276E0A50025873
:101F4000286E0B500358296E140E95D9040E26C026
:101F5000DBFF030EDB50C80DF3CF08F0F4CF09F020
:101F60000A6A0B6A09AE02D00A680B689ED908504B
:101F7000EE5C046E0950EE58056E0A50EE58066E7F
:101F80000B50EE58076E640EDF02F3CF0CF00D6AB3
:101F90000E6A0F6AF350045C006E0D500558016E16
:101FA0000E500658026E0F500758036E040EDB5099
:101FB000140DF3CF10F0116A126A136AF350005C2B
:101FC000266E11500158276E12500258286E135079
:101FD0000358296E0A0E4FD9010E26C0DBFF030EEF
:101FE000DB50C80DF3CF10F0F4CF11F0126A136A72
:101FF00011AE02D01268136858D91050EE5C0C6E06
:102000001150EE580D6E1250EE580E6E1350EE58E1
:102010000F6E640EDF02F3CF14F0156A166A176AAA
:10202000F3500C5C086E15500D58096E16500E5882
:102030000A6E17500F580B6E040EDB50140DF3CFC1
:1020400018F0196A1A6A1B6AF350085C046E19507A
:102050000958056E1A500A58066E1B500B58076E29
:10206000020EDBCF1CF01D6A1E6A1F6A1C50045C46
:10207000006E1D500558016E1E500658026E1F500E
:102080000758036E020E00C0DBFF090EDB6A030E69
:10209000DB50E6D803E2F00EF4D8F9D7090EDB6A7C
:1020A000DF50DED803E2780EECD8FAD7090EDB6AEF
:1020B000040EDB50D5D803E2180EE3D8F9D7090E89
:1020C000DB6A010EDB50CCD803E20C0EDAD8F9D76C
:1020D000090EDB6A020EDB50C3D808E20C0EE66E76
:1020E00083EC13F0E552090EDB2AF4D70A0EE15C0B
:1020F00002E2E16AE552E16EBAD004D9E652DF6A43
:10210000DF6AFE0EDB50DF5C07E2780EE66EB1ECB4
:1021100013F0E552DF2AF5D7E552A9D0CCD8FE0E50
:10212000DB50050DF350DF6E010EDB6ADB6ADF501A
:10213000F36E010EDBCFF4FFF350F45C08E2F00E17
:10214000E66E6CEC13F0E552010EDB2AF0D7020EBE
:10215000E15C02E2E16AE552E16E89D0DACFE4FFA8
:10216000E652F2A403D0F29400018A2B9EA003D081
:102170009E9000018B2BE552E5CFDAFF11000001A4
:10218000905102E0906B010C000C0001010E906F69
:10219000120036C476F437C4B4F438C4B5F4000180
:1021A0008851891102E1000E08D088C0E9FF89C07A
:1021B000EAFFEF50800B01E0010E00090DE1400E37
:1021C000E66E760EE66E040EE66E010EE66E9FD8A3
:1021D000F3CF88F0F4CF89F0120094D8070EE126EF
:1021E0009ED8A4D82B682C6A2D6A2E6A04C026F0CB
:1021F00005C027F006C028F007C029F0C2EC12F095
:1022000022C004F023C005F024C006F025C007F06A
:10221000225000262350012224500222255003225E
:1022200000C0DFFF010E01C0DBFF020E02C0DBFFBA
:10223000030E03C0DBFF81D8D9CFE9FFDACFEAFF75
:10224000010EEE181200E66E360EE66E040EE66E15
:10225000E66A010E5CD8F3CF86F0F4CF87F0120067
:10226000F36E090EDBCFF4FFF350F45C1200E5527D
:10227000E7CFD9FF12002B6E2C6A2D6A2E6AFAEF77
:1022800012F0E66E6CEC13F0E552090EDB2A120038
:10229000DECF27F0DECF28F0DECF29F0DDCF2AF029
:1022A000DD52DD5203502A181200D950050FE96E95
:1022B000DACFEAFF120026D8020EE1261200040E41
:1022C000DBCF00F0050EDBCF01F0026A036A1200DB
:1022D0002750005C28500158295002582A500358B2
:1022E0001200DECF00F0DDCF01F0D89001501200D7
:1022F00009D8FE0EDB501200060EDBCFE6FFFDDE36
:10230000E5521200D9CFE6FFE1CFD9FF1200E66E09
:1023100032EC0CF0006E050EE15E00501200FE0E75
:10232000DBCF00F0016A026A036A1200FD0EDBCF08
:1023300004F0056A066A076A1200040EDB6A050EDD
:04234000DB6A120042
:0C234400040120511F0B010801E01200F1
:10235000245101E01200060E215D21E12351230AE0
:102360001BE0010A0CE0030A1AE10001610517E114
:102370000001440E716F240E726F090E09D0000126
:1023800061050DE10001C10E716F240E726F1D0E0B
:10239000746F756BC00E02D00001800E736F040164
:1023A0002051600BE842E842E842E842E842010876
:1023B00001E0120021510B0A2AE0080A1DE0090A77
:1023C00015E0080A09E00B0A05E0080A01E012001E
:1023D0000DEF12F00EEF12F00001A10E716F000E62
:1023E000726F010E746F756BC10E0FD00001800EFD
:1023F000736F23C4A1F012000001A20E716F000ED2
:10240000726F010E746F756B810E736F1200000195
:10241000800E736F22C4A2F012001200120012008C
:102420001201000200000008D8043F00020001026F
:10243000000109022900010100C032090400000264
:1024400003000000092111010001221D0007058180
:10245000034000010705010340000104030904349F
:10246000034D006900630072006F0063006800693B
:10247000007000200054006500630068006E006F6B
:10248000006C006F0067007900200049006E006357
:10249000002E002E03530069006D0070006C006573
:1024A00000200048004900440020004400650076F8
:1024B000006900630065002000440065006D006F46
:1024C000000600FF0901A10119012940150026FF9E
:1024D00000750895408102190129409102C03224FB
:0624E0005B245F2493243D
:0A24E6002A0EF66E100EF76E000EBF
:1024F000F86E00010900F550966F0900F550976FCE
:1025000003E1966701D03DD00900F550916F0900B5
:10251000F550926F0900F550936F09000900F550CE
:10252000E96E0900F550EA6E090009000900F5504E
:10253000946F0900F550956F09000900F6CF98F0E7
:10254000F7CF99F0F8CF9AF091C0F6FF92C0F7FF5D
:1025500093C0F8FF0001945302E1955307E009008E
:10256000F550EE6E9407F8E29507F9D798C0F6FF9C
:1025700099C0F7FF9AC0F8FF00019607000E975B1D
:04258000BFD71200AF
:0C25840026502B02F3CF22F0F4CF23F0FE
:102590002C02F3502326000EF420246E26502D0228
:1025A000F3502426000EF420256E26502E02F35000
:1025B000252627502B02F3502326F4502422000E08
:1025C000252227502C02F3502426F4502522275090
:1025D0002D02F350252628502B02F3502426F450C8
:1025E000252228502C02F350252629502B02F35087
:0425F000252612008A
:0C25F400206AE86A2EAE07EF13F02B6C93
:102600002C1E2D1E2E1E2C222D222E22201E29AEE7
:1026100012EF13F0266C271E281E291E27222822BF
:102620002922201E2EEC13F029BE29EF13F020AE34
:10263000000C266C271E281E291EE86A2722282245
:102640002922226C231E241E251E23222422252219
:0C265000000C20BE19EF13F02188FF0CD5
:04265C00256A246A5D
:10266000236A226A200EE76ED8902636273628364F
:10267000293622362336243625362B50225C2C5020
:1026800023582D5024582E50255809E32B50225EF4
:102690002C50235A2D50245A2E50255A262AE72EE4
:0426A000E4D7120069
:0C26A400FE0EE3CFE9FFFF0EE3CFEAFFDC
:1026B000E9CFF3FFEACFF4FFFB0EE35003E1FC0E9A
:1026C000E35009E0FB0EE30602E2FC0EE306FD0E1A
:0826D000E350EE6EF1D7120099
:0826D800FF0EE350316EEF0E1E
:1026E00001D0F30EE76EE72E73EF13F00C0E306E91
:1026F000E76AE72E79EF13F0302E78EF13F0312EE2
:0627000071EF13F012005E
:0A270600FF0EE350316E480E01D0C3
:102710004C0EE76EE72EFED7E76AE72EFED7312E86
:06272000F7D700001200D3
:0A272600000EF36E00EE00F0040E4A
:1027300001D81200EA6002D0EE6AFCD7F350E960DB
:062740001200EE6AFCD756
:0A27460013EE00F023EE00F0F86A35
:10275000219C73EC12F0BFEC13F07FEC0DF0FBD773
:02276000120065
:0E276200FF0EE350316E1B0E00D001D0200E92
:0E277000E76EE72EFED7312EFAD700D012000A
:02277E00120047
:0C2780000000000000000000000000004D
:020000040030CA
:0100000024DB
:010001000EF0
:010002003FBE
:010003001EDE
:010005008179
:010006008178
:010008000FE8
:01000900C036
:01000A000FE6
:01000B00E014
:01000C000FE4
:01000D0040B2
:00000001FF
